{
  "_format": "hh-sol-artifact-1",
  "contractName": "NFTCollection",
  "sourceName": "contracts/NFTCollection.sol",
  "abi": [
    {
      "inputs": [
        {
          "internalType": "string",
          "name": "_name",
          "type": "string"
        },
        {
          "internalType": "string",
          "name": "_symbol",
          "type": "string"
        },
        {
          "internalType": "string",
          "name": "_baseTokenURI",
          "type": "string"
        }
      ],
      "stateMutability": "nonpayable",
      "type": "constructor"
    },
    {
      "anonymous": false,
      "inputs": [
        {
          "indexed": true,
          "internalType": "address",
          "name": "owner",
          "type": "address"
        },
        {
          "indexed": true,
          "internalType": "address",
          "name": "approved",
          "type": "address"
        },
        {
          "indexed": true,
          "internalType": "uint256",
          "name": "tokenId",
          "type": "uint256"
        }
      ],
      "name": "Approval",
      "type": "event"
    },
    {
      "anonymous": false,
      "inputs": [
        {
          "indexed": true,
          "internalType": "address",
          "name": "owner",
          "type": "address"
        },
        {
          "indexed": true,
          "internalType": "address",
          "name": "operator",
          "type": "address"
        },
        {
          "indexed": false,
          "internalType": "bool",
          "name": "approved",
          "type": "bool"
        }
      ],
      "name": "ApprovalForAll",
      "type": "event"
    },
    {
      "anonymous": false,
      "inputs": [
        {
          "indexed": true,
          "internalType": "address",
          "name": "previousOwner",
          "type": "address"
        },
        {
          "indexed": true,
          "internalType": "address",
          "name": "newOwner",
          "type": "address"
        }
      ],
      "name": "OwnershipTransferred",
      "type": "event"
    },
    {
      "anonymous": false,
      "inputs": [
        {
          "indexed": false,
          "internalType": "address",
          "name": "account",
          "type": "address"
        }
      ],
      "name": "Paused",
      "type": "event"
    },
    {
      "anonymous": false,
      "inputs": [
        {
          "indexed": false,
          "internalType": "address",
          "name": "collection",
          "type": "address"
        },
        {
          "indexed": false,
          "internalType": "address",
          "name": "recipient",
          "type": "address"
        },
        {
          "indexed": false,
          "internalType": "uint256",
          "name": "tokenId",
          "type": "uint256"
        },
        {
          "indexed": false,
          "internalType": "string",
          "name": "tokenURI",
          "type": "string"
        }
      ],
      "name": "TokenMinted",
      "type": "event"
    },
    {
      "anonymous": false,
      "inputs": [
        {
          "indexed": true,
          "internalType": "address",
          "name": "from",
          "type": "address"
        },
        {
          "indexed": true,
          "internalType": "address",
          "name": "to",
          "type": "address"
        },
        {
          "indexed": true,
          "internalType": "uint256",
          "name": "tokenId",
          "type": "uint256"
        }
      ],
      "name": "Transfer",
      "type": "event"
    },
    {
      "anonymous": false,
      "inputs": [
        {
          "indexed": false,
          "internalType": "address",
          "name": "account",
          "type": "address"
        }
      ],
      "name": "Unpaused",
      "type": "event"
    },
    {
      "inputs": [
        {
          "internalType": "address",
          "name": "to",
          "type": "address"
        },
        {
          "internalType": "uint256",
          "name": "tokenId",
          "type": "uint256"
        }
      ],
      "name": "approve",
      "outputs": [],
      "stateMutability": "nonpayable",
      "type": "function"
    },
    {
      "inputs": [
        {
          "internalType": "address",
          "name": "owner",
          "type": "address"
        }
      ],
      "name": "balanceOf",
      "outputs": [
        {
          "internalType": "uint256",
          "name": "",
          "type": "uint256"
        }
      ],
      "stateMutability": "view",
      "type": "function"
    },
    {
      "inputs": [
        {
          "internalType": "uint256",
          "name": "tokenId",
          "type": "uint256"
        }
      ],
      "name": "burn",
      "outputs": [],
      "stateMutability": "nonpayable",
      "type": "function"
    },
    {
      "inputs": [
        {
          "internalType": "uint256",
          "name": "tokenId",
          "type": "uint256"
        }
      ],
      "name": "getApproved",
      "outputs": [
        {
          "internalType": "address",
          "name": "",
          "type": "address"
        }
      ],
      "stateMutability": "view",
      "type": "function"
    },
    {
      "inputs": [
        {
          "internalType": "address",
          "name": "_owner",
          "type": "address"
        }
      ],
      "name": "getTokenIdsOfWallet",
      "outputs": [
        {
          "internalType": "uint256[]",
          "name": "",
          "type": "uint256[]"
        }
      ],
      "stateMutability": "view",
      "type": "function"
    },
    {
      "inputs": [
        {
          "internalType": "address",
          "name": "owner",
          "type": "address"
        },
        {
          "internalType": "address",
          "name": "operator",
          "type": "address"
        }
      ],
      "name": "isApprovedForAll",
      "outputs": [
        {
          "internalType": "bool",
          "name": "",
          "type": "bool"
        }
      ],
      "stateMutability": "view",
      "type": "function"
    },
    {
      "inputs": [
        {
          "internalType": "address payable",
          "name": "_to",
          "type": "address"
        }
      ],
      "name": "mint",
      "outputs": [],
      "stateMutability": "payable",
      "type": "function"
    },
    {
      "inputs": [],
      "name": "name",
      "outputs": [
        {
          "internalType": "string",
          "name": "",
          "type": "string"
        }
      ],
      "stateMutability": "view",
      "type": "function"
    },
    {
      "inputs": [],
      "name": "owner",
      "outputs": [
        {
          "internalType": "address",
          "name": "",
          "type": "address"
        }
      ],
      "stateMutability": "view",
      "type": "function"
    },
    {
      "inputs": [
        {
          "internalType": "uint256",
          "name": "tokenId",
          "type": "uint256"
        }
      ],
      "name": "ownerOf",
      "outputs": [
        {
          "internalType": "address",
          "name": "",
          "type": "address"
        }
      ],
      "stateMutability": "view",
      "type": "function"
    },
    {
      "inputs": [],
      "name": "paused",
      "outputs": [
        {
          "internalType": "bool",
          "name": "",
          "type": "bool"
        }
      ],
      "stateMutability": "view",
      "type": "function"
    },
    {
      "inputs": [],
      "name": "renounceOwnership",
      "outputs": [],
      "stateMutability": "nonpayable",
      "type": "function"
    },
    {
      "inputs": [
        {
          "internalType": "address",
          "name": "from",
          "type": "address"
        },
        {
          "internalType": "address",
          "name": "to",
          "type": "address"
        },
        {
          "internalType": "uint256",
          "name": "tokenId",
          "type": "uint256"
        }
      ],
      "name": "safeTransferFrom",
      "outputs": [],
      "stateMutability": "nonpayable",
      "type": "function"
    },
    {
      "inputs": [
        {
          "internalType": "address",
          "name": "from",
          "type": "address"
        },
        {
          "internalType": "address",
          "name": "to",
          "type": "address"
        },
        {
          "internalType": "uint256",
          "name": "tokenId",
          "type": "uint256"
        },
        {
          "internalType": "bytes",
          "name": "data",
          "type": "bytes"
        }
      ],
      "name": "safeTransferFrom",
      "outputs": [],
      "stateMutability": "nonpayable",
      "type": "function"
    },
    {
      "inputs": [
        {
          "internalType": "address",
          "name": "operator",
          "type": "address"
        },
        {
          "internalType": "bool",
          "name": "approved",
          "type": "bool"
        }
      ],
      "name": "setApprovalForAll",
      "outputs": [],
      "stateMutability": "nonpayable",
      "type": "function"
    },
    {
      "inputs": [
        {
          "internalType": "bytes4",
          "name": "interfaceId",
          "type": "bytes4"
        }
      ],
      "name": "supportsInterface",
      "outputs": [
        {
          "internalType": "bool",
          "name": "",
          "type": "bool"
        }
      ],
      "stateMutability": "view",
      "type": "function"
    },
    {
      "inputs": [],
      "name": "symbol",
      "outputs": [
        {
          "internalType": "string",
          "name": "",
          "type": "string"
        }
      ],
      "stateMutability": "view",
      "type": "function"
    },
    {
      "inputs": [
        {
          "internalType": "uint256",
          "name": "index",
          "type": "uint256"
        }
      ],
      "name": "tokenByIndex",
      "outputs": [
        {
          "internalType": "uint256",
          "name": "",
          "type": "uint256"
        }
      ],
      "stateMutability": "view",
      "type": "function"
    },
    {
      "inputs": [
        {
          "internalType": "address",
          "name": "owner",
          "type": "address"
        },
        {
          "internalType": "uint256",
          "name": "index",
          "type": "uint256"
        }
      ],
      "name": "tokenOfOwnerByIndex",
      "outputs": [
        {
          "internalType": "uint256",
          "name": "",
          "type": "uint256"
        }
      ],
      "stateMutability": "view",
      "type": "function"
    },
    {
      "inputs": [
        {
          "internalType": "uint256",
          "name": "tokenId",
          "type": "uint256"
        }
      ],
      "name": "tokenURI",
      "outputs": [
        {
          "internalType": "string",
          "name": "",
          "type": "string"
        }
      ],
      "stateMutability": "view",
      "type": "function"
    },
    {
      "inputs": [],
      "name": "totalSupply",
      "outputs": [
        {
          "internalType": "uint256",
          "name": "",
          "type": "uint256"
        }
      ],
      "stateMutability": "view",
      "type": "function"
    },
    {
      "inputs": [
        {
          "internalType": "address",
          "name": "from",
          "type": "address"
        },
        {
          "internalType": "address",
          "name": "to",
          "type": "address"
        },
        {
          "internalType": "uint256",
          "name": "tokenId",
          "type": "uint256"
        }
      ],
      "name": "transferFrom",
      "outputs": [],
      "stateMutability": "nonpayable",
      "type": "function"
    },
    {
      "inputs": [
        {
          "internalType": "address",
          "name": "newOwner",
          "type": "address"
        }
      ],
      "name": "transferOwnership",
      "outputs": [],
      "stateMutability": "nonpayable",
      "type": "function"
    }
  ],
  "bytecode": "0x60806040523480156200001157600080fd5b506040516200249a3803806200249a833981016040819052620000349162000275565b8251839083906200004d90600090602085019062000102565b5080516200006390600190602084019062000102565b505050620000806200007a620000ac60201b60201c565b620000b0565b600a805460ff60a01b191690558051620000a290600c90602084019062000102565b5050505062000343565b3390565b600a80546001600160a01b038381166001600160a01b0319831681179093556040519116919082907f8be0079c531659141344cd1fd0a4f28419497f9722a3daafe3b4186f6b6457e090600090a35050565b828054620001109062000306565b90600052602060002090601f0160209004810192826200013457600085556200017f565b82601f106200014f57805160ff19168380011785556200017f565b828001600101855582156200017f579182015b828111156200017f57825182559160200191906001019062000162565b506200018d92915062000191565b5090565b5b808211156200018d576000815560010162000192565b634e487b7160e01b600052604160045260246000fd5b600082601f830112620001d057600080fd5b81516001600160401b0380821115620001ed57620001ed620001a8565b604051601f8301601f19908116603f01168101908282118183101715620002185762000218620001a8565b816040528381526020925086838588010111156200023557600080fd5b600091505b838210156200025957858201830151818301840152908201906200023a565b838211156200026b5760008385830101525b9695505050505050565b6000806000606084860312156200028b57600080fd5b83516001600160401b0380821115620002a357600080fd5b620002b187838801620001be565b94506020860151915080821115620002c857600080fd5b620002d687838801620001be565b93506040860151915080821115620002ed57600080fd5b50620002fc86828701620001be565b9150509250925092565b600181811c908216806200031b57607f821691505b602082108114156200033d57634e487b7160e01b600052602260045260246000fd5b50919050565b61214780620003536000396000f3fe6080604052600436106101805760003560e01c80636352211e116100d6578063a22cb4651161007f578063e985e9c511610059578063e985e9c51461040f578063eef6250814610458578063f2fde38b1461048557600080fd5b8063a22cb465146103af578063b88d4fde146103cf578063c87b56dd146103ef57600080fd5b8063715018a6116100b0578063715018a6146103675780638da5cb5b1461037c57806395d89b411461039a57600080fd5b80636352211e146103145780636a6278421461033457806370a082311461034757600080fd5b806323b872dd1161013857806342966c681161011257806342966c68146102b55780634f6ccce7146102d55780635c975abb146102f557600080fd5b806323b872dd146102555780632f745c591461027557806342842e0e1461029557600080fd5b8063081812fc11610169578063081812fc146101dc578063095ea7b31461021457806318160ddd1461023657600080fd5b806301ffc9a71461018557806306fdde03146101ba575b600080fd5b34801561019157600080fd5b506101a56101a0366004611ca4565b6104a5565b60405190151581526020015b60405180910390f35b3480156101c657600080fd5b506101cf6104b6565b6040516101b19190611d19565b3480156101e857600080fd5b506101fc6101f7366004611d2c565b610548565b6040516001600160a01b0390911681526020016101b1565b34801561022057600080fd5b5061023461022f366004611d5a565b61056f565b005b34801561024257600080fd5b506008545b6040519081526020016101b1565b34801561026157600080fd5b50610234610270366004611d86565b6106a6565b34801561028157600080fd5b50610247610290366004611d5a565b61071f565b3480156102a157600080fd5b506102346102b0366004611d86565b6107c7565b3480156102c157600080fd5b506102346102d0366004611d2c565b6107e2565b3480156102e157600080fd5b506102476102f0366004611d2c565b61085a565b34801561030157600080fd5b50600a54600160a01b900460ff166101a5565b34801561032057600080fd5b506101fc61032f366004611d2c565b6108fe565b610234610342366004611dc7565b610963565b34801561035357600080fd5b50610247610362366004611dc7565b610a54565b34801561037357600080fd5b50610234610aee565b34801561038857600080fd5b50600a546001600160a01b03166101fc565b3480156103a657600080fd5b506101cf610b02565b3480156103bb57600080fd5b506102346103ca366004611de4565b610b11565b3480156103db57600080fd5b506102346103ea366004611e38565b610b1c565b3480156103fb57600080fd5b506101cf61040a366004611d2c565b610b9b565b34801561041b57600080fd5b506101a561042a366004611f18565b6001600160a01b03918216600090815260056020908152604080832093909416825291909152205460ff1690565b34801561046457600080fd5b50610478610473366004611dc7565b610c02565b6040516101b19190611f46565b34801561049157600080fd5b506102346104a0366004611dc7565b610ca4565b60006104b082610d31565b92915050565b6060600080546104c590611f8a565b80601f01602080910402602001604051908101604052809291908181526020018280546104f190611f8a565b801561053e5780601f106105135761010080835404028352916020019161053e565b820191906000526020600020905b81548152906001019060200180831161052157829003601f168201915b5050505050905090565b600061055382610d6f565b506000908152600460205260409020546001600160a01b031690565b600061057a826108fe565b9050806001600160a01b0316836001600160a01b031614156106095760405162461bcd60e51b815260206004820152602160248201527f4552433732313a20617070726f76616c20746f2063757272656e74206f776e6560448201527f720000000000000000000000000000000000000000000000000000000000000060648201526084015b60405180910390fd5b336001600160a01b03821614806106255750610625813361042a565b6106975760405162461bcd60e51b815260206004820152603e60248201527f4552433732313a20617070726f76652063616c6c6572206973206e6f7420746f60448201527f6b656e206f776e6572206e6f7220617070726f76656420666f7220616c6c00006064820152608401610600565b6106a18383610dd3565b505050565b6106b1335b82610e41565b6107145760405162461bcd60e51b815260206004820152602e60248201527f4552433732313a2063616c6c6572206973206e6f7420746f6b656e206f776e6560448201526d1c881b9bdc88185c1c1c9bdd995960921b6064820152608401610600565b6106a1838383610ec0565b600061072a83610a54565b821061079e5760405162461bcd60e51b815260206004820152602b60248201527f455243373231456e756d657261626c653a206f776e657220696e646578206f7560448201527f74206f6620626f756e64730000000000000000000000000000000000000000006064820152608401610600565b506001600160a01b03919091166000908152600660209081526040808320938352929052205490565b6106a183838360405180602001604052806000815250610b1c565b6107eb336106ab565b61084e5760405162461bcd60e51b815260206004820152602e60248201527f4552433732313a2063616c6c6572206973206e6f7420746f6b656e206f776e6560448201526d1c881b9bdc88185c1c1c9bdd995960921b6064820152608401610600565b61085781611098565b50565b600061086560085490565b82106108d95760405162461bcd60e51b815260206004820152602c60248201527f455243373231456e756d657261626c653a20676c6f62616c20696e646578206f60448201527f7574206f6620626f756e647300000000000000000000000000000000000000006064820152608401610600565b600882815481106108ec576108ec611fbf565b90600052602060002001549050919050565b6000818152600260205260408120546001600160a01b0316806104b05760405162461bcd60e51b815260206004820152601860248201527f4552433732313a20696e76616c696420746f6b656e20494400000000000000006044820152606401610600565b600061096d61113f565b9050601461097c826001611feb565b11156109f05760405162461bcd60e51b815260206004820152602b60248201527f43757272656e7420636f756e742065786365656473206d6178696d756d20656c60448201527f656d656e7420636f756e740000000000000000000000000000000000000000006064820152608401610600565b66b1a2bc2ec50000341015610a475760405162461bcd60e51b815260206004820152601460248201527f496e73756666696369656e742062616c616e63650000000000000000000000006044820152606401610600565b610a508261114f565b5050565b60006001600160a01b038216610ad25760405162461bcd60e51b815260206004820152602960248201527f4552433732313a2061646472657373207a65726f206973206e6f74206120766160448201527f6c6964206f776e657200000000000000000000000000000000000000000000006064820152608401610600565b506001600160a01b031660009081526003602052604090205490565b610af66111d5565b610b00600061122f565b565b6060600180546104c590611f8a565b610a50338383611281565b610b263383610e41565b610b895760405162461bcd60e51b815260206004820152602e60248201527f4552433732313a2063616c6c6572206973206e6f7420746f6b656e206f776e6560448201526d1c881b9bdc88185c1c1c9bdd995960921b6064820152608401610600565b610b9584848484611350565b50505050565b6060610ba682610d6f565b6000610bb06113ce565b90506000815111610bd05760405180602001604052806000815250610bfb565b80610bda846113dd565b604051602001610beb929190612003565b6040516020818303038152906040525b9392505050565b60606000610c0f83610a54565b905060008167ffffffffffffffff811115610c2c57610c2c611e22565b604051908082528060200260200182016040528015610c55578160200160208202803683370190505b50905060005b82811015610c9c57610c6d858261071f565b828281518110610c7f57610c7f611fbf565b602090810291909101015280610c9481612032565b915050610c5b565b509392505050565b610cac6111d5565b6001600160a01b038116610d285760405162461bcd60e51b815260206004820152602660248201527f4f776e61626c653a206e6577206f776e657220697320746865207a65726f206160448201527f64647265737300000000000000000000000000000000000000000000000000006064820152608401610600565b6108578161122f565b60006001600160e01b031982167f780e9d630000000000000000000000000000000000000000000000000000000014806104b057506104b08261150f565b6000818152600260205260409020546001600160a01b03166108575760405162461bcd60e51b815260206004820152601860248201527f4552433732313a20696e76616c696420746f6b656e20494400000000000000006044820152606401610600565b600081815260046020526040902080546001600160a01b0319166001600160a01b0384169081179091558190610e08826108fe565b6001600160a01b03167f8c5be1e5ebec7d5bd14f71427d1e84f3dd0314c0f7b2291e5b200ac8c7c3b92560405160405180910390a45050565b600080610e4d836108fe565b9050806001600160a01b0316846001600160a01b03161480610e9457506001600160a01b0380821660009081526005602090815260408083209388168352929052205460ff165b80610eb85750836001600160a01b0316610ead84610548565b6001600160a01b0316145b949350505050565b826001600160a01b0316610ed3826108fe565b6001600160a01b031614610f4f5760405162461bcd60e51b815260206004820152602560248201527f4552433732313a207472616e736665722066726f6d20696e636f72726563742060448201527f6f776e65720000000000000000000000000000000000000000000000000000006064820152608401610600565b6001600160a01b038216610fca5760405162461bcd60e51b8152602060048201526024808201527f4552433732313a207472616e7366657220746f20746865207a65726f2061646460448201527f72657373000000000000000000000000000000000000000000000000000000006064820152608401610600565b610fd58383836115aa565b610fe0600082610dd3565b6001600160a01b038316600090815260036020526040812080546001929061100990849061204d565b90915550506001600160a01b0382166000908152600360205260408120805460019290611037908490611feb565b909155505060008181526002602052604080822080546001600160a01b0319166001600160a01b0386811691821790925591518493918716917fddf252ad1be2c89b69c2b068fc378daa952ba7f163c4a11628f55a4df523b3ef91a4505050565b60006110a3826108fe565b90506110b1816000846115aa565b6110bc600083610dd3565b6001600160a01b03811660009081526003602052604081208054600192906110e590849061204d565b909155505060008281526002602052604080822080546001600160a01b0319169055518391906001600160a01b038416907fddf252ad1be2c89b69c2b068fc378daa952ba7f163c4a11628f55a4df523b3ef908390a45050565b600061114a600b5490565b905090565b60006111596115b5565b9050611169600b80546001019055565b61117382826115fa565b6000818152600d60205260409020805460ff191660011790557fc9fee7cd4889f66f10ff8117316524260a5242e88e25e0656dfb3f4196a219173083836111b981610b9b565b6040516111c99493929190612064565b60405180910390a15050565b600a546001600160a01b03163314610b005760405162461bcd60e51b815260206004820181905260248201527f4f776e61626c653a2063616c6c6572206973206e6f7420746865206f776e65726044820152606401610600565b600a80546001600160a01b038381166001600160a01b0319831681179093556040519116919082907f8be0079c531659141344cd1fd0a4f28419497f9722a3daafe3b4186f6b6457e090600090a35050565b816001600160a01b0316836001600160a01b031614156112e35760405162461bcd60e51b815260206004820152601960248201527f4552433732313a20617070726f766520746f2063616c6c6572000000000000006044820152606401610600565b6001600160a01b03838116600081815260056020908152604080832094871680845294825291829020805460ff191686151590811790915591519182527f17307eab39ab6107e8899845ad3d59bd9653f200f220920489ca2b5937696c31910160405180910390a3505050565b61135b848484610ec0565b61136784848484611614565b610b955760405162461bcd60e51b815260206004820152603260248201527f4552433732313a207472616e7366657220746f206e6f6e20455243373231526560448201527131b2b4bb32b91034b6b83632b6b2b73a32b960711b6064820152608401610600565b6060600c80546104c590611f8a565b60608161141d57505060408051808201909152600181527f3000000000000000000000000000000000000000000000000000000000000000602082015290565b8160005b8115611447578061143181612032565b91506114409050600a836120b6565b9150611421565b60008167ffffffffffffffff81111561146257611462611e22565b6040519080825280601f01601f19166020018201604052801561148c576020820181803683370190505b5090505b8415610eb8576114a160018361204d565b91506114ae600a866120ca565b6114b9906030611feb565b60f81b8183815181106114ce576114ce611fbf565b60200101907effffffffffffffffffffffffffffffffffffffffffffffffffffffffffffff1916908160001a905350611508600a866120b6565b9450611490565b60006001600160e01b031982167f80ac58cd00000000000000000000000000000000000000000000000000000000148061157257506001600160e01b031982167f5b5e139f00000000000000000000000000000000000000000000000000000000145b806104b057507f01ffc9a7000000000000000000000000000000000000000000000000000000006001600160e01b03198316146104b0565b6106a183838361176c565b60008060005b6115c481611809565b6000818152600d602052604090205490925060ff166115e2576115f4565b806115ec81612032565b9150506115bb565b50919050565b610a5082826040518060200160405280600081525061187a565b60006001600160a01b0384163b1561176157604051630a85bd0160e11b81526001600160a01b0385169063150b7a0290611658903390899088908890600401612064565b602060405180830381600087803b15801561167257600080fd5b505af19250505080156116a2575060408051601f3d908101601f1916820190925261169f918101906120de565b60015b611747573d8080156116d0576040519150601f19603f3d011682016040523d82523d6000602084013e6116d5565b606091505b50805161173f5760405162461bcd60e51b815260206004820152603260248201527f4552433732313a207472616e7366657220746f206e6f6e20455243373231526560448201527131b2b4bb32b91034b6b83632b6b2b73a32b960711b6064820152608401610600565b805181602001fd5b6001600160e01b031916630a85bd0160e11b149050610eb8565b506001949350505050565b6117778383836118f8565b600a546001600160a01b031633146106a157600a54600160a01b900460ff16156106a15760405162461bcd60e51b815260206004820152602b60248201527f4552433732315061757361626c653a20746f6b656e207472616e73666572207760448201527f68696c65207061757365640000000000000000000000000000000000000000006064820152608401610600565b600060144244338560405160200161184c9493929190938452602084019290925260601b6bffffffffffffffffffffffff19166040830152605482015260740190565b6040516020818303038152906040528051906020012060001c61186f91906120ca565b6104b0906001611feb565b61188483836119b0565b6118916000848484611614565b6106a15760405162461bcd60e51b815260206004820152603260248201527f4552433732313a207472616e7366657220746f206e6f6e20455243373231526560448201527131b2b4bb32b91034b6b83632b6b2b73a32b960711b6064820152608401610600565b6001600160a01b0383166119535761194e81600880546000838152600960205260408120829055600182018355919091527ff3f7a9fe364faab93b216da50a3214154f22a0a2b415b23a84c8169e8b636ee30155565b611976565b816001600160a01b0316836001600160a01b031614611976576119768382611afe565b6001600160a01b03821661198d576106a181611b9b565b826001600160a01b0316826001600160a01b0316146106a1576106a18282611c4a565b6001600160a01b038216611a065760405162461bcd60e51b815260206004820181905260248201527f4552433732313a206d696e7420746f20746865207a65726f20616464726573736044820152606401610600565b6000818152600260205260409020546001600160a01b031615611a6b5760405162461bcd60e51b815260206004820152601c60248201527f4552433732313a20746f6b656e20616c7265616479206d696e746564000000006044820152606401610600565b611a77600083836115aa565b6001600160a01b0382166000908152600360205260408120805460019290611aa0908490611feb565b909155505060008181526002602052604080822080546001600160a01b0319166001600160a01b03861690811790915590518392907fddf252ad1be2c89b69c2b068fc378daa952ba7f163c4a11628f55a4df523b3ef908290a45050565b60006001611b0b84610a54565b611b15919061204d565b600083815260076020526040902054909150808214611b68576001600160a01b03841660009081526006602090815260408083208584528252808320548484528184208190558352600790915290208190555b5060009182526007602090815260408084208490556001600160a01b039094168352600681528383209183525290812055565b600854600090611bad9060019061204d565b60008381526009602052604081205460088054939450909284908110611bd557611bd5611fbf565b906000526020600020015490508060088381548110611bf657611bf6611fbf565b6000918252602080832090910192909255828152600990915260408082208490558582528120556008805480611c2e57611c2e6120fb565b6001900381819060005260206000200160009055905550505050565b6000611c5583610a54565b6001600160a01b039093166000908152600660209081526040808320868452825280832085905593825260079052919091209190915550565b6001600160e01b03198116811461085757600080fd5b600060208284031215611cb657600080fd5b8135610bfb81611c8e565b60005b83811015611cdc578181015183820152602001611cc4565b83811115610b955750506000910152565b60008151808452611d05816020860160208601611cc1565b601f01601f19169290920160200192915050565b602081526000610bfb6020830184611ced565b600060208284031215611d3e57600080fd5b5035919050565b6001600160a01b038116811461085757600080fd5b60008060408385031215611d6d57600080fd5b8235611d7881611d45565b946020939093013593505050565b600080600060608486031215611d9b57600080fd5b8335611da681611d45565b92506020840135611db681611d45565b929592945050506040919091013590565b600060208284031215611dd957600080fd5b8135610bfb81611d45565b60008060408385031215611df757600080fd5b8235611e0281611d45565b915060208301358015158114611e1757600080fd5b809150509250929050565b634e487b7160e01b600052604160045260246000fd5b60008060008060808587031215611e4e57600080fd5b8435611e5981611d45565b93506020850135611e6981611d45565b925060408501359150606085013567ffffffffffffffff80821115611e8d57600080fd5b818701915087601f830112611ea157600080fd5b813581811115611eb357611eb3611e22565b604051601f8201601f19908116603f01168101908382118183101715611edb57611edb611e22565b816040528281528a6020848701011115611ef457600080fd5b82602086016020830137600060208483010152809550505050505092959194509250565b60008060408385031215611f2b57600080fd5b8235611f3681611d45565b91506020830135611e1781611d45565b6020808252825182820181905260009190848201906040850190845b81811015611f7e57835183529284019291840191600101611f62565b50909695505050505050565b600181811c90821680611f9e57607f821691505b602082108114156115f457634e487b7160e01b600052602260045260246000fd5b634e487b7160e01b600052603260045260246000fd5b634e487b7160e01b600052601160045260246000fd5b60008219821115611ffe57611ffe611fd5565b500190565b60008351612015818460208801611cc1565b835190830190612029818360208801611cc1565b01949350505050565b600060001982141561204657612046611fd5565b5060010190565b60008282101561205f5761205f611fd5565b500390565b60006001600160a01b038087168352808616602084015250836040830152608060608301526120966080830184611ced565b9695505050505050565b634e487b7160e01b600052601260045260246000fd5b6000826120c5576120c56120a0565b500490565b6000826120d9576120d96120a0565b500690565b6000602082840312156120f057600080fd5b8151610bfb81611c8e565b634e487b7160e01b600052603160045260246000fdfea2646970667358221220047351de1aaf66e66ecebc3545806b97f39d25490bb2ea83eaac5d7195b5688f64736f6c63430008090033",
  "linkReferences": {},
  "deployedLinkReferences": {}
}